:1000000049C0000065C0000063C0000061C000007E
:100010005FC000005DC000005BC0000059C0000070
:1000200057C0000055C0000053C0000051C0000080
:100030000C949C1D4DC000004BC0000049C0000046
:1000400047C0000045C000006AC5000041C0000074
:100050003FC000000C94A21F3BC000000C94611F25
:1000600037C0000035C0000033C0000031C00000C0
:100070002FC000002DC000002BC0000029C00000D0
:100080000C942B2025C000000C94EA1F21C0000016
:100090001FC0000011241FBECFEFD0E1DEBFCDBFD7
:1000A00012E0A0E0B1E0ECE6F7E400E00BBF02C034
:1000B00007900D92A437B107D9F713E0A4E7B2E097
:1000C00001C01D92AC3BB107E1F703D00C94B423FF
:1000D00097CFDF93CF93CDB7DEB72E970FB6F894B7
:1000E000DEBF0FBECDBF0E94371E80E090E0A8ECBF
:1000F000B2E48B879C87AD87BE876B857C858D85B9
:100100009E8520E030E44CE155E40E942B22DC0186
:10011000CB018F839887A987BA876F817885898576
:100120009A8520E030E040E85FE30E94D8208823F1
:100130002CF481E090E09E838D833FC06F817885B1
:1001400089859A8520E03FEF4FE757E40E942722F8
:1001500018164CF56B857C858D859E8520E030E0FA
:1001600040E251E40E942B22DC01CB01BC01CD0115
:100170000E944921DC01CB019E838D830FC08AEF51
:1001800090E09C838B838B819C810197F1F79C830A
:100190008B838D819E8101979E838D838D819E812E
:1001A000009769F72AC06F81788589859A850E94B2
:1001B0004921DC01CB019E838D838D819E819A83B1
:1001C000898389819A810197F1F79A83898315C080
:1001D0000E94FA1D882349F482E090E09093070181
:1001E000809306010E94FA0A08C083E090E0909391
:1001F0000701809306010E943C17809106019091AF
:100200000701009729F7809106019091070182303C
:10021000910519F40E94FA0AF6CF80910601909197
:1002200007018330910579F70E943C17ECCF0F93BB
:100230001F93DF93CF9300D0CDB7DEB79A83898326
:10024000ADE2B0E0EDE2F0E0808188638C93A4E25F
:10025000B0E0E4E2F0E0808180688C93E4E9F0E0D3
:1002600011821082E6E4F0E01082E8E9F0E0118209
:100270001082EAE9F0E011821082ECE9F0E01182EC
:100280001082E0E9F0E08EEB8083E1E9F0E08AE1C2
:100290008083E4E4F0E08BE6808306E910E0898166
:1002A0009A81CC01A0E0B0E0BC01CD010E94752193
:1002B000DC01CB01BC01CD0120E030E040E051E4A5
:1002C0000E942B22DC01CB019C01AD0160E876E9A4
:1002D00088E19BE40E94DC20DC01CB01BC01CD0164
:1002E00020E030E040E05FE30E947420DC01CB01BD
:1002F000BC01CD010E944921DC01CB01F8019183B1
:1003000080830F900F90CF91DF911F910F910895EF
:10031000EF92FF920F931F93DF93CF9300D000D003
:10032000CDB7DEB79C838B83E6E9F0E080819181D5
:10033000CC01A0E0B0E0BC01CD010E947521DC0140
:10034000CB01BC01CD0120E030E04FE753E40E9437
:10035000DC20DC01CB017C018D018B819C81AA27F3
:1003600097FDA095BA2FBC01CD010E9477219B017A
:10037000AC01C801B7010E942B22DC01CB01BC01FA
:10038000CD0120E030E040E05FE30E947420DC011A
:10039000CB01BC01CD010E944921DC01CB019A8334
:1003A0008983E9E9F0E089819A81892F99278083FF
:1003B000E8E9F0E0898180830F900F900F900F9013
:1003C000CF91DF911F910F91FF90EF900895EF92E1
:1003D000FF920F931F93DF93CF9300D000D0CDB740
:1003E000DEB79C838B83E6E9F0E080819181CC01CC
:1003F000A0E0B0E0BC01CD010E947521DC01CB0181
:10040000BC01CD0120E030E04FE753E40E94DC2046
:10041000DC01CB017C018D018B819C81AA2797FD9A
:10042000A095BA2FBC01CD010E9477219B01AC01A0
:10043000C801B7010E942B22DC01CB01BC01CD0118
:1004400020E030E040E05FE30E947420DC01CB015B
:10045000BC01CD010E944921DC01CB019A83898333
:10046000EBE9F0E089819A81892F99278083EAE975
:10047000F0E0898180830F900F900F900F90CF91C3
:10048000DF911F910F91FF90EF900895EF92FF92EF
:100490000F931F93DF93CF9300D000D0CDB7DEB77B
:1004A0009C838B83E6E9F0E080819181CC01A0E020
:1004B000B0E0BC01CD010E947521DC01CB01BC0183
:1004C000CD0120E030E04FE753E40E94DC20DC0166
:1004D000CB017C018D018B819C81AA2797FDA09582
:1004E000BA2FBC01CD010E9477219B01AC01C8014C
:1004F000B7010E942B22DC01CB01BC01CD0120E021
:1005000030E040E05FE30E947420DC01CB01BC01DD
:10051000CD010E944921DC01CB019A838983EDE959
:10052000F0E089819A81892F99278083ECE9F0E0B6
:10053000898180830F900F900F900F90CF91DF9162
:100540001F910F91FF90EF900895DF93CF930F923B
:10055000CDB7DEB789838981992787FD9095A92F2B
:10056000B92FBC01CD010E947721DC01CB01BC0178
:10057000CD0120E030E044EB52E40E94DC20DC01BD
:10058000CB01BC01CD0126E636E646E351EC0E94E4
:100590002B22DC01CB01BC01CD0120E030E04CE698
:1005A00053E40E947420DC01CB019C01AD0160E0AA
:1005B00070E08FE793E40E947320DC01CB01BC0163
:1005C000CD010E944421DC01CB01A2DE0F90CF912E
:1005D000DF910895DF93CF930F92CDB7DEB7898374
:1005E0008981992787FD9095A92FB92FBC01CD014D
:1005F0000E947721DC01CB01BC01CD0120E030E07D
:1006000044EB52E40E94DC20DC01CB01BC01CD01B3
:1006100026E636E646E351EC0E942B22DC01CB01B4
:10062000BC01CD0120E030E04CE653E40E94742090
:10063000DC01CB019C01AD0160E070E08FE793E449
:100640000E947320DC01CB01BC01CD010E9444213A
:10065000DC01CB01BCDE0F90CF91DF910895DF93D9
:10066000CF930F92CDB7DEB789838981992787FD14
:100670009095A92FB92FBC01CD010E947721DC01F3
:10068000CB01BC01CD0120E030E044EB52E40E94FC
:10069000DC20DC01CB01BC01CD0126E636E646E3D9
:1006A00051EC0E942B22DC01CB01BC01CD0120E0EA
:1006B00030E04CE653E40E947420DC01CB019C0145
:1006C000AD0160E070E08FE793E40E947320DC01ED
:1006D000CB01BC01CD010E944421DC01CB01D6DE5F
:1006E0000F90CF91DF910895DF93CF930F92CDB705
:1006F000DEB78983E7E4F0E0898180830F90CF91B2
:10070000DF910895DF93CF93CDB7DEB786EFA7DFF4
:1007100080E5EADFCF91DF910895DF93CF93CDB7E6
:10072000DEB789E59CDF8AEFDFDFCF91DF910895A7
:10073000DF93CF93CDB7DEB72E970FB6F894DEBF19
:100740000FBECDBF8AE546DF80E090E0AAEFB4E4BB
:100750008B879C87AD87BE876B857C858D859E85C5
:1007600020E030E44CE155E40E942B22DC01CB0177
:100770008F839887A987BA876F81788589859A85BD
:1007800020E030E040E85FE30E94D82088232CF48A
:1007900081E090E09E838D833FC06F81788589855D
:1007A0009A8520E03FEF4FE757E40E942722181672
:1007B0004CF56B857C858D859E8520E030E040E2A0
:1007C00051E40E942B22DC01CB01BC01CD010E942F
:1007D0004921DC01CB019E838D830FC08AEF90E01D
:1007E0009C838B838B819C810197F1F79C838B8306
:1007F0008D819E8101979E838D838D819E8100973F
:1008000069F714C06F81788589859A850E9449218E
:10081000DC01CB019E838D838D819E819A838983A8
:1008200089819A810197F1F79A83898386E48DDE25
:100830002E960FB6F894DEBF0FBECDBFCF91DF91DD
:100840000895DF93CF93CDB7DEB7AA970FB6F8948C
:10085000DEBF0FBECDBF8AE5BDDE80E090E0AAE737
:10086000B4E48FA398A7A9A7BAA76FA178A589A573
:100870009AA520E030E44CE155E40E942B22DC01F3
:10088000CB018BA39CA3ADA3BEA36BA17CA18DA127
:100890009EA120E030E040E85FE30E94D82088235A
:1008A0002CF481E090E09AA389A33FC06BA17CA1C6
:1008B0008DA19EA120E03FEF4FE757E40E94272241
:1008C00018164CF56FA178A589A59AA520E030E00F
:1008D00040E251E40E942B22DC01CB01BC01CD019E
:1008E0000E944921DC01CB019AA389A30FC08AEFA2
:1008F00090E098A38F8F8F8D98A10197F1F798A31F
:100900008F8F89A19AA101979AA389A389A19AA1FE
:10091000009769F714C06BA17CA18DA19EA10E94D4
:100920004921DC01CB019AA389A389A19AA19E8FB9
:100930008D8F8D8D9E8D0197F1F79E8F8D8F80E02D
:1009400090E0AAE7B4E4898F9A8FAB8FBC8F698D52
:100950007A8D8B8D9C8D20E030E44CE155E40E9433
:100960002B22DC01CB018D8B9E8BAF8BB88F6D89D9
:100970007E898F89988D20E030E040E85FE30E9417
:10098000D82088232CF481E090E09C8B8B8B3FC097
:100990006D897E898F89988D20E03FEF4FE757E47E
:1009A0000E94272218164CF5698D7A8D8B8D9C8DAF
:1009B00020E030E040E251E40E942B22DC01CB0138
:1009C000BC01CD010E944921DC01CB019C8B8B8BAA
:1009D0000FC08AEF90E09A8B898B89899A89019759
:1009E000F1F79A8B898B8B899C8901979C8B8B8BD8
:1009F0008B899C89009769F714C06D897E898F89DE
:100A0000988D0E944921DC01CB019C8B8B8B8B89BB
:100A10009C89988B8F878F8598890197F1F7988BA0
:100A20008F878EE1D7DD80E090E0AAEFB3E48B877B
:100A30009C87AD87BE876B857C858D859E8520E0F4
:100A400030E44CE155E40E942B22DC01CB018F8382
:100A50009887A987BA876F81788589859A8520E0EC
:100A600030E040E85FE30E94D82088232CF481E046
:100A700090E09E838D833FC06F81788589859A85BC
:100A800020E03FEF4FE757E40E94272218164CF56D
:100A90006B857C858D859E8520E030E040E251E4C9
:100AA0000E942B22DC01CB01BC01CD010E94492117
:100AB000DC01CB019E838D830FC08AEF90E09C8385
:100AC0008B838B819C810197F1F79C838B838D8134
:100AD0009E8101979E838D838D819E81009769F70A
:100AE00014C06F81788589859A850E944921DC012F
:100AF000CB019E838D838D819E819A838983898199
:100B00009A810197F1F79A838983FCDDAA960FB643
:100B1000F894DEBF0FBECDBFCF91DF9108951F9235
:100B20000F920FB60F9200905B000F9211242F933B
:100B30003F934F935F938F939F93AF93BF93EF93A5
:100B4000FF93DF93CF9300D000D0CDB7DEB7EDEEAB
:100B5000F0E080818C831B829CC0EDEEF0E08B8105
:100B60008295807F8083EEEEF0E08081829586958D
:100B70008770882F90E081709070882309F46EC090
:100B8000EFEEF0E080E88083AEEEB0E0EEEEF0E075
:100B900080818F7D8C93E2EFF0E080818295869555
:100BA0008770282FE3EFF0E08081882F90E0880F96
:100BB000991F880F991F880F991F822B8A8319828A
:100BC0002AC08A81282F30E081E090E0821B930BBD
:100BD000880F991F909581959F4FFC01EC58FD4F10
:100BE000408151818A81882F90E00197FC01E8576C
:100BF000FD4F8081282F30E08981882F90E0820F7F
:100C0000931FDA01A80FB91FEAEFF0E080818C93FF
:100C100089818F5F89838981883098F28A81882FC2
:100C200090E00197FC01E857FD4F80818F5F808342
:100C30008081853041F48A81882F90E00197FC0102
:100C4000E857FD4F10828A81882F90E00197FC01C0
:100C5000E456FD4F80818F5F80831FC0EEEEF0E091
:100C600080818295869586958370882F90E081702B
:100C70009070882359F0EFEEF0E01082AEEEB0E015
:100C8000EEEEF0E080818F7B8C9307C08B818F5FCD
:100C90008B838B818F3008F460CFEDEEF0E08C8198
:100CA0008083AAEDB0E0EAEDF0E080818C930F90B4
:100CB0000F900F900F90CF91DF91FF91EF91BF9127
:100CC000AF919F918F915F914F913F912F910F9095
:100CD00000925B000F900FBE0F901F901895DF934E
:100CE000CF9300D0CDB7DEB7E8EDF0E081E08083B0
:100CF0001A8232C0EDEEF0E08A818295807F808397
:100D0000EEEEF0E01082EFEEF0E01082E3EFF0E0C4
:100D10001082E2EFF0E01082E1EFF0E01082E0EF0D
:100D2000F0E01082E7EFF0E01082E6EFF0E01082F2
:100D3000E5EFF0E01082E4EFF0E01082198206C0E7
:100D4000EAEFF0E0108289818F5F898389818830A2
:100D5000B8F38A818F5F8A838A818F3058F2E8EDF9
:100D6000F0E082E08083E2EEF0E081E08083E3EE79
:100D7000F0E088E08083E4EEF0E08EE58083E5EE4D
:100D8000F0E01082EBEDF0E080EB8083EFEDF0E03F
:100D90008FE78083EEEDF0E08FEF808378940F9003
:100DA0000F90CF91DF910895DF93CF9300D000D0C3
:100DB0000F92CDB7DEB79C838B83EDEEF0E08081A0
:100DC0008983E9EDF0E0808182958F70882F90E033
:100DD000817090708823A9F7E9EDF0E08081869515
:100DE00086958695882F90E081709070882349F7CA
:100DF0001A823FC0EDEEF0E08A818295807F808389
:100E0000EFEEF0E080818295869586958370882349
:100E100069F5EFEEF0E08FE08083E3EFF0E08B81A7
:100E20009C819070969587959695879596958795D0
:100E30008083E2EFF0E08B818295880F807E808353
:100E4000E6EFF0E080EE8083E7EFF0E08FEF808365
:100E5000AFEEB0E0EFEEF0E0808180688C93EDEED5
:100E6000F0E08981808381E08D830CC08A818F5F6F
:100E70008A838A818F3008F4BDCFEDEEF0E089815E
:100E800080831D828D810F900F900F900F900F9097
:100E9000CF91DF9108950F931F93DF93CF9300D0ED
:100EA000CDB7DEB78A831BDF198236C08981882FD0
:100EB00090E0019679DF8981882F90E0880F991F53
:100EC0008C010C581D4F85E090E061E070E00E94BD
:100ED0008E22F801918380838981482F50E0898197
:100EE000282F30E08981882F90E0FC01E456FD4FE7
:100EF0001082FC01E456FD4F8081F901EE56FD4F52
:100F00008083F901EE56FD4F8081FA01E857FD4FCD
:100F1000808389818F5F898399818A81981730F2D4
:100F20000F900F90CF91DF911F910F910895DF9354
:100F3000CF9300D000D0CDB7DEB79B838A836C837C
:100F4000E4E3F0E08FEF80838C81882F90E00197BD
:100F5000FC01E456FD4F80818823B1F3198230C033
:100F60008981282F30E08A819B81DC01A20FB31F89
:100F70008C81282F30E081E090E0821B930B880F5A
:100F8000991F909581959F4FFC01EC58FD4F408132
:100F900051818C81882F90E00197FC01EE56FD4F26
:100FA0008081282F30E08981882F90E0820F931F65
:100FB000FA01E80FF91F80818C9389818F5F898303
:100FC0008981883068F28C81882F90E00197FC013C
:100FD000EE56FD4F80818F5F80838081853041F4A4
:100FE0008C81882F90E00197FC01EE56FD4F108216
:100FF0008C81882F90E09C0121503040F901E4560B
:10100000FD4F80818150F901E456FD4F808380E0DF
:101010000F900F900F900F90CF91DF910895DF9375
:10102000CF93CDB7DEB727970FB6F894DEBF0FBECC
:10103000CDBF9D838C836E83E9EDF0E08081829546
:101040008F70882F90E0817090708823A9F7E9ED68
:10105000F0E08081869586958695882F90E0817056
:101060009070882349F7EDEEF0E0808189831A8241
:1010700012C0EDEEF0E08A818295807F8083EFEEF2
:10108000F0E080818295869586958370882331F083
:101090008A818F5F8A838A818F3058F38A818F306B
:1010A00019F48FEF8F8332C0E2EFF0E08E818295EA
:1010B000880F807E8083E3EFF0E08E8186958695B1
:1010C00086958083EFEEF0E088E080831B820FC07E
:1010D000AAEFB0E08B81282F30E08C819D81FC014C
:1010E000E20FF31F80818C938B818F5F8B838B81C9
:1010F000883070F3AFEEB0E0EFEEF0E08081806416
:101100008C93EDEEF0E0898180831F828F8127969A
:101110000FB6F894DEBF0FBECDBFCF91DF9108951B
:10112000DF93CF93CDB7DEB72C970FB6F894DEBF21
:101130000FBECDBF89876A874B8780910A01909146
:101140000B019C838B838B819C81069798878F836F
:1011500014C0EF81F88590818985981719F421E0F2
:101160002C87C9C0EF81F885808591859A83898312
:1011700089819A81069798878F838F8198850696B3
:1011800021E08830920729F789858695869586958E
:101190008F5F8E83898587708D838A85813009F082
:1011A00048C08E81282F30E0C901880F991F820F17
:1011B000931F4E96DC018E81282F30E0C901880FE5
:1011C000991F820F931F4E96FC018081482F8D81BD
:1011D000282F30E081E090E002C0880F991F2A9507
:1011E000E2F7842B8C938E81282F30E0C901880F81
:1011F000991F820F931F4F96DC018E81282F30E0BC
:10120000C901880F991F820F931F4F96FC0180819F
:10121000482F8D81282F30E081E090E0022E02C01F
:10122000880F991F0A94E2F7809584238C931C867B
:1012300062C08E81282F30E0C901880F991F820F6C
:10124000931F4E96DC018E81282F30E0C901880F54
:10125000991F820F931F4E96FC018081482F8D812C
:10126000282F30E081E090E002C0880F991F2A9576
:10127000E2F7809584238C938E81282F30E0C9017A
:10128000880F991F820F931F4F96DC018E81282FA4
:1012900030E0C901880F991F820F931F4F96FC0100
:1012A0008081482F8D81282F30E081E090E002C0BE
:1012B000880F991F2A95E2F7842B8C938AE090E09F
:1012C0000E94A82298878F838F819885009719F4B0
:1012D00081E08C8710C0EF81F88589858083EF815C
:1012E000F8858B8581838F819885069628E031E08B
:1012F000B9010BD01C868C852C960FB6F894DEBFF6
:101300000FBECDBFCF91DF910895DF93CF9300D073
:1013100000D0CDB7DEB79A8389837C836B83EB8162
:10132000FC814281538189819A812B813C81B90161
:1013300007D00F900F900F900F90CF91DF910895ED
:10134000DF93CF9300D000D000D0CDB7DEB79A8323
:1013500089837C836B835E834D83ED81FE818981EC
:101360009A8191838083E981FA818D819E81938323
:101370008283E981FA818B819C8191838083EB81D7
:10138000FC8189819A819383828326960FB6F89493
:10139000DEBF0FBECDBFCF91DF910895DF93CF9316
:1013A00000D00F92CDB7DEB78B838B818695869563
:1013B00086958F5F8A838B8187708B838A81282FA4
:1013C00030E0C901880F991F820F931F4D96FC01D1
:1013D000808189838981282F30E08B81882F90E05C
:1013E000A90102C0559547958A95E2F7CA01817017
:1013F0000F900F900F90CF91DF910895DF93CF93CF
:10140000CDB7DEB72B970FB6F894DEBF0FBECDBFBA
:10141000898780910A0190910B019E838D838D8134
:101420009E81069798878F8355C0EF81F8859081BC
:101430008985981709F043C01C8221C08C81282F10
:1014400030E08F819885820F931FFC013296408196
:101450008C81882F90E09C012F5F3F4F8F81988572
:10146000820F931FFC0132968081481729F0EF818B
:10147000F88525812B8738C08C818F5F8C838C8188
:101480008230E0F2EF81F885918181E0892788231D
:1014900029F0EF81F88582818A8708C0EF81F8857D
:1014A00082811A86882311F421E02A878A858B831A
:1014B000EF81F8858B8185832B812B8715C0EF8188
:1014C000F885808591859A83898389819A81069799
:1014D00098878F838F819885069621E088309207C0
:1014E00009F0A3CF81E08B878B852B960FB6F894FC
:1014F000DEBF0FBECDBFCF91DF9108950F931F9335
:10150000DF93CF9300D000D000D0CDB7DEB780916D
:101510000A0190910B019C838B838B819C810697A0
:101520009E838D831BC00091A6021091A702ED81BE
:10153000FE81808133DF282F8D819E81800F911F56
:10154000FC0132962083ED81FE81808591859A830E
:10155000898389819A8106979E838D838D819E815F
:10156000069621E088309207F1F68091A6029091CC
:10157000A70201969093A7028093A6028091A602EB
:101580009091A7028330910521F41092A702109246
:10159000A60226960FB6F894DEBF0FBECDBFCF9140
:1015A000DF911F910F910895DF93CF9300D000D06A
:1015B000CDB7DEB769837A838B839C83AED880E016
:1015C0000F900F900F900F90CF91DF910895DF93C0
:1015D000CF9300D000D0CDB7DEB769837A838B83F9
:1015E0009C8390D880E00F900F900F900F90CF9138
:1015F000DF9108950F931F93DF93CF93CDB7DEB79D
:10160000C759D0400FB6F894DEBF0FBECDBFFE0164
:10161000E057FF4F1082FE01E157FF4F1082FE019D
:10162000E357FF4F82E08083FE01EF56FF4F84EBCC
:1016300090E091838083FE01EF56FF4F8EED93E0A3
:1016400093838283FE01EF56FF4F8AE590E09583F6
:101650008483CE018F569F4F0E94EB14FE01E35707
:10166000FF4F8081992787FD909582309105B1F7D2
:10167000FE01E057FF4FDE01A157BF4F8C918083E1
:10168000A6C6FE01E057FF4F8081482F50E0CA01F7
:10169000880F991F9C01220F331F220F331F820FC7
:1016A000931F840F951F8D5E9E4FBC01FE01E05776
:1016B000FF4F8081482F50E0CA01880F991F9C017D
:1016C000220F331F220F331F820F931F840F951F8A
:1016D000FC01E65EFE4FA081FE01E057FF4F8081D6
:1016E000482F50E0CA01880F991F9C01220F331F19
:1016F000220F331F820F931F840F951FFC01E55E9D
:10170000FE4F8081B82FFE01E057FF4F8081482FA8
:1017100050E0CA01880F991F9C01220F331F220F2E
:10172000331F820F931F840F951FFC01E45EFE4F51
:1017300020813181CB016A2F4B2F0E943214FE0190
:10174000E257FF4F8083FE01E257FF4F80818130D7
:1017500009F484CFFE01E057FF4F8081813039F0DA
:10176000FE01E057FF4F8081833009F0B5C0FE01D4
:10177000E757FF4F80E090E0AAE7B4E480839183CD
:10178000A283B3838E010B571F4FFE01E757FF4F14
:10179000608171818281938120E030E44CE155E4E5
:1017A0000E942B22DC01CB01F80180839183A2836C
:1017B000B383FE01EB57FF4F60817181828193817A
:1017C00020E030E040E85FE30E94D820882344F422
:1017D000FE01ED57FF4F81E090E09183808364C06C
:1017E000FE01EB57FF4F608171818281938120E080
:1017F0003FEF4FE757E40E94272218160CF043C032
:10180000FE01E757FF4F608171818281938120E063
:1018100030E040E251E40E942B22DC01CB018E013A
:101820000D571F4FBC01CD010E944921DC01CB01A6
:10183000F801918380831FC0FE01EF57FF4F8AEFAD
:1018400090E091838083FE01EF57FF4F808191816B
:101850000197F1F7FE01EF57FF4F91838083DE017F
:10186000AD57BF4FFE01ED57FF4F8081918101972A
:1018700011969C938E93FE01ED57FF4F80819181CD
:101880000097D1F69BC58E010D571F4FFE01EB57F8
:10189000FF4F60817181828193810E944921DC0127
:1018A000CB01F80191838083DE01A158BF4FFE0177
:1018B000ED57FF4F8081918111969C938E93FE018D
:1018C000E158FF4F808191810197F1F7FE01E158C6
:1018D000FF4F9183808372C5FE01E057FF4F8081E7
:1018E000863009F0E6C284E10E942F03FE01E5582C
:1018F000FF4F80E090E0A8E4B4E480839183A2836A
:10190000B3838E0109581F4FFE01E558FF4F6081D8
:1019100071818281938120E030E44CE155E40E94A2
:101920002B22DC01CB01F80180839183A283B38356
:10193000FE01E958FF4F608171818281938120E02F
:1019400030E040E85FE30E94D820882344F4FE01A1
:10195000EB58FF4F81E090E09183808364C0FE01EB
:10196000E958FF4F608171818281938120E03FEFD0
:101970004FE757E40E94272218160CF043C0FE01DF
:10198000E558FF4F608171818281938120E030E0D2
:1019900040E251E40E942B22DC01CB018E010B5866
:1019A0001F4FBC01CD010E944921DC01CB01F80190
:1019B000918380831FC0FE01ED58FF4F8AEF90E0B6
:1019C00091838083FE01ED58FF4F808191810197C3
:1019D000F1F7FE01ED58FF4F91838083DE01AB5894
:1019E000BF4FFE01EB58FF4F808191810197119607
:1019F0009C938E93FE01EB58FF4F8081918100975D
:101A0000D1F627C08E010B581F4FFE01E958FF4F3A
:101A100060817181828193810E944921DC01CB0127
:101A2000F80191838083DE01AF58BF4FFE01EB5870
:101A3000FF4F808191818D939C93FE01EF58FF4F62
:101A4000808191810197F1F7FE01EF58FF4F91835B
:101A5000808388ED9FEF6EE140E050E00E94C21568
:101A6000FE01E359FF4F80E090E0AAEFB3E48083EA
:101A70009183A283B3838E0107591F4FFE01E3595F
:101A8000FF4F608171818281938120E030E44CE1DD
:101A900055E40E942B22DC01CB01F8018083918365
:101AA000A283B383FE01E759FF4F60817181828178
:101AB000938120E030E040E85FE30E94D820882353
:101AC00044F4FE01E959FF4F81E090E09183808367
:101AD00064C0FE01E759FF4F60817181828193816B
:101AE00020E03FEF4FE757E40E94272218160CF042
:101AF00043C0FE01E359FF4F608171818281938170
:101B000020E030E040E251E40E942B22DC01CB01D6
:101B10008E0109591F4FBC01CD010E944921DC01F2
:101B2000CB01F801918380831FC0FE01EB59FF4F69
:101B30008AEF90E091838083FE01EB59FF4F808113
:101B400091810197F1F7FE01EB59FF4F918380835B
:101B5000DE01A959BF4FFE01E959FF4F80819181F4
:101B6000019711969C938E93FE01E959FF4F808156
:101B700091810097D1F627C08E0109591F4FFE01B0
:101B8000E759FF4F60817181828193810E944921D1
:101B9000DC01CB01F80191838083DE01AD59BF4F99
:101BA000FE01E959FF4F808191818D939C93FE0145
:101BB000ED59FF4F808191810197F1F7FE01ED59B9
:101BC000FF4F9183808384E60E947403FE01E15AF3
:101BD000FF4F80E090E0A8E4B4E480839183A28387
:101BE000B3838E01055A1F4FFE01E15AFF4F6081FA
:101BF00071818281938120E030E44CE155E40E94C0
:101C00002B22DC01CB01F80180839183A283B38373
:101C1000FE01E55AFF4F608171818281938120E04E
:101C200030E040E85FE30E94D820882344F4FE01BE
:101C3000E75AFF4F81E090E09183808364C0FE010A
:101C4000E55AFF4F608171818281938120E03FEFEF
:101C50004FE757E40E94272218160CF043C0FE01FC
:101C6000E15AFF4F608171818281938120E030E0F1
:101C700040E251E40E942B22DC01CB018E01075A85
:101C80001F4FBC01CD010E944921DC01CB01F801AD
:101C9000918380831FC0FE01E95AFF4F8AEF90E0D5
:101CA00091838083FE01E95AFF4F808191810197E2
:101CB000F1F7FE01E95AFF4F91838083DE01A75AB5
:101CC000BF4FFE01E75AFF4F808191810197119626
:101CD0009C938E93FE01E75AFF4F8081918100977C
:101CE000D1F627C08E01075A1F4FFE01E55AFF4F5C
:101CF00060817181828193810E944921DC01CB0145
:101D0000F80191838083DE01AB5ABF4FFE01E75A91
:101D1000FF4F808191818D939C93FE01EB5AFF4F81
:101D2000808191810197F1F7FE01EB5AFF4F91837A
:101D3000808388E39FEF6EE140E050E0EAD4FE014B
:101D4000EF5AFF4F80E090E0AAEFB3E480839183E5
:101D5000A283B3838E01035B1F4FFE01EF5AFF4F37
:101D6000608171818281938120E030E44CE155E40F
:101D70000E942B22DC01CB01F80180839183A28396
:101D8000B383FE01E35BFF4F6081718182819381A8
:101D900020E030E040E85FE30E94D820882344F44C
:101DA000FE01E55BFF4F81E090E09183808364C09A
:101DB000FE01E35BFF4F608171818281938120E0AE
:101DC0003FEF4FE757E40E94272218160CF043C05C
:101DD000FE01EF5AFF4F608171818281938120E083
:101DE00030E040E251E40E942B22DC01CB018E0165
:101DF000055B1F4FBC01CD010E944921DC01CB01D5
:101E0000F801918380831FC0FE01E75BFF4F8AEFDB
:101E100090E091838083FE01E75BFF4F8081918199
:101E20000197F1F7FE01E75BFF4F91838083DE01AD
:101E3000A55BBF4FFE01E55BFF4F8081918101975C
:101E400011969C938E93FE01E55BFF4F80819181FB
:101E50000097D1F627C08E01055B1F4FFE01E35BA3
:101E6000FF4F60817181828193810E944921DC0151
:101E7000CB01F80191838083DE01A95BBF4FFE0196
:101E8000E55BFF4F808191818D939C93FE01E95B1F
:101E9000FF4F808191810197F1F7FE01E95BFF4FD0
:101EA0009183808386EA9FEF6EE140E050E013D794
:101EB00085C2FE01E057FF4F80818A3039F0FE0174
:101EC000E057FF4F80818B3009F086C0FE01ED5B4B
:101ED000FF4F80E090E0AAE7B4E480839183A2837F
:101EE000B3838E01015C1F4FFE01ED5BFF4F6081EC
:101EF00071818281938120E030E44CE155E40E94BD
:101F00002B22DC01CB01F80180839183A283B38370
:101F1000FE01FF96608171818281938120E030E033
:101F200040E85FE30E94D82088232CF481E090E011
:101F30009EAF8DAF46C0FE01FF96608171818281A8
:101F4000938120E03FEF4FE757E40E9427221816C5
:101F500064F5FE01ED5BFF4F6081718182819381A9
:101F600020E030E040E251E40E942B22DC01CB0172
:101F7000BC01CD010E944921DC01CB019EAF8DAF98
:101F80000FC08AEF90E09CAF8BAF8BAD9CAD0197FB
:101F9000F1F79CAF8BAF8DAD9EAD01979EAF8DAF2E
:101FA0008DAD9EAD009769F709C2FE01FF96608175
:101FB0007181828193810E944921DC01CB019EAF16
:101FC0008DAF8DAD9EAD9AAF89AF89AD9AAD0197BA
:101FD000F1F79AAF89AFF2C1FE01E057FF4F808160
:101FE000883009F073C080E090E8ABE3B5E48DABD6
:101FF0009EABAFABB8AF6DA97EA98FA998AD20E01D
:1020000030E44CE155E40E942B22DC01CB0189AB8A
:102010009AABABABBCAB69A97AA98BA99CA920E010
:1020200030E040E85FE30E94D82088232CF481E070
:1020300090E098AB8FA73FC069A97AA98BA99CA90A
:1020400020E03FEF4FE757E40E94272218164CF597
:102050006DA97EA98FA998AD20E030E040E251E45F
:102060000E942B22DC01CB01BC01CD010E94492141
:10207000DC01CB0198AB8FA70FC08AEF90E09EA741
:102080008DA78DA59EA50197F1F79EA78DA78FA57A
:1020900098A9019798AB8FA78FA598A9009769F782
:1020A0008DC169A97AA98BA99CA90E944921DC014B
:1020B000CB0198AB8FA78FA598A99CA78BA78BA5C1
:1020C0009CA50197F1F79CA78BA778C1FE01E0576B
:1020D000FF4F80818A3009F073C080E090E0AAE76A
:1020E000B4E48FA398A7A9A7BAA76FA178A589A5DB
:1020F0009AA520E030E44CE155E40E942B22DC015B
:10210000CB018BA39CA3ADA3BEA36BA17CA18DA18E
:102110009EA120E030E040E85FE30E94D8208823C1
:102120002CF481E090E09AA389A33FC06BA17CA12D
:102130008DA19EA120E03FEF4FE757E40E942722A8
:1021400018164CF56FA178A589A59AA520E030E076
:1021500040E251E40E942B22DC01CB01BC01CD0105
:102160000E944921DC01CB019AA389A30FC08AEF09
:1021700090E098A38F8F8F8D98A10197F1F798A386
:102180008F8F89A19AA101979AA389A389A19AA166
:10219000009769F713C16BA17CA18DA19EA10E943C
:1021A0004921DC01CB019AA389A389A19AA19E8F21
:1021B0008D8F8D8D9E8D0197F1F79E8F8D8FFEC037
:1021C000FE01E057FF4F80818B3009F073C080E043
:1021D00090E0AAEFB4E4898F9A8FAB8FBC8F698DA2
:1021E0007A8D8B8D9C8D20E030E44CE155E40E948B
:1021F0002B22DC01CB018D8B9E8BAF8BB88F6D8931
:102200007E898F89988D20E030E040E85FE30E946E
:10221000D82088232CF481E090E09C8B8B8B3FC0EE
:102220006D897E898F89988D20E03FEF4FE757E4D5
:102230000E94272218164CF5698D7A8D8B8D9C8D06
:1022400020E030E040E251E40E942B22DC01CB018F
:10225000BC01CD010E944921DC01CB019C8B8B8B01
:102260000FC08AEF90E09A8B898B89899A890197B0
:10227000F1F79A8B898B8B899C8901979C8B8B8B2F
:102280008B899C89009769F799C06D897E898F89B0
:10229000988D0E944921DC01CB019C8B8B8B8B8913
:1022A0009C89988B8F878F8598890197F1F7988BF8
:1022B0008F8784C0FE01E057FF4F80818C3009F08A
:1022C00073C080E090E8ABEBB4E48B879C87AD876C
:1022D000BE876B857C858D859E8520E030E44CE152
:1022E00055E40E942B22DC01CB018F839887A987BC
:1022F000BA876F81788589859A8520E030E040E84B
:102300005FE30E94D82088232CF481E090E09E8334
:102310008D833FC06F81788589859A8520E03FEF66
:102320004FE757E40E94272218164CF56B857C85F1
:102330008D859E8520E030E040E251E40E942B2212
:10234000DC01CB01BC01CD010E944921DC01CB01A4
:102350009E838D830FC08AEF90E09C838B838B815B
:102360009C810197F1F79C838B838D819E810197DE
:102370009E838D838D819E81009769F71FC06F8139
:10238000788589859A850E944921DC01CB019E834D
:102390008D838D819E819A83898389819A8101971A
:1023A000F1F79A8389830AC0FE01E057FF4F8081CD
:1023B0008F3021F4E4E3F0E01082FFCFDE01A0577C
:1023C000BF4FFE01E057FF4F80818F5F8C93FE016E
:1023D000E057FF4F8081803108F453C93FC9DF9334
:1023E000CF93CDB7DEB767970FB6F894DEBF0FBEB9
:1023F000CDBF8F8B9091A8028F89891709F482C075
:1024000086E58F878F89888B72C080E090E0A8E492
:10241000B2E48B879C87AD87BE876B857C858D8575
:102420009E8520E030E44CE155E40E942B22DC0143
:10243000CB018F839887A987BA876F817885898533
:102440009A8520E030E040E85FE30E94D8208823AE
:102450002CF481E090E09E838D833FC06F8178856E
:1024600089859A8520E03FEF4FE757E40E942722B5
:1024700018164CF56B857C858D859E8520E030E0B7
:1024800040E251E40E942B22DC01CB01BC01CD01D2
:102490000E944921DC01CB019E838D830FC08AEF0E
:1024A00090E09C838B838B819C810197F1F79C83C7
:1024B0008B838D819E8101979E838D838D819E81EB
:1024C000009769F714C06F81788589859A850E9485
:1024D0004921DC01CB019E838D838D819E819A836E
:1024E000898389819A810197F1F79A838983CE0143
:1024F0000F9663EC0E940F08882309F086CF8F891E
:102500008093A80267960FB6F894DEBF0FBECDBFCA
:10251000CF91DF910895DF93CF93CDB7DEB7669764
:102520000FB6F894DEBF0FBECDBF80E58F8772C0B7
:1025300080E090E0A8E4B2E48B879C87AD87BE87FB
:102540006B857C858D859E8520E030E44CE155E4EB
:102550000E942B22DC01CB018F839887A987BA8741
:102560006F81788589859A8520E030E040E85FE3D7
:102570000E94D82088232CF481E090E09E838D83F4
:102580003FC06F81788589859A8520E03FEF4FE7CE
:1025900057E40E94272218164CF56B857C858D85A3
:1025A0009E8520E030E040E251E40E942B22DC01D5
:1025B000CB01BC01CD010E944921DC01CB019E83EE
:1025C0008D830FC08AEF90E09C838B838B819C81ED
:1025D0000197F1F79C838B838D819E8101979E8368
:1025E0008D838D819E81009769F714C06F817885F6
:1025F00089859A850E944921DC01CB019E838D83C8
:102600008D819E819A83898389819A810197F1F7CF
:102610009A838983CE010F9663EC0E940F0888236A
:1026200009F086CFCE010F9661E00E9497078F8553
:10263000809312018889882F90E0382F222789897A
:10264000882F90E0822B932B90930D0180930C01A7
:102650008A89882F90E0382F22278B89882F90E055
:10266000822B932B90930F0180930E018C89882FDE
:1026700090E0382F22278D89882F90E0822B932B92
:10268000909311018093100166960FB6F894DEBF07
:102690000FBECDBFCF91DF910895DF93CF93CDB71C
:1026A000DEB727970FB6F894DEBF0FBECDBF9E836F
:1026B0008D830E94261EAA2797FDA095BA2F898395
:1026C0009A83AB83BC8327DF8D819E81009771F055
:1026D00089819A81AB81BC81ED81FE81BC01CD01F4
:1026E0000995813019F481E08F8309C0809112012E
:1026F0008D3449F380911201823529F31F828F8135
:1027000027960FB6F894DEBF0FBECDBFCF91DF91F5
:102710000895DF93CF93CDB7DEB76B970FB6F894DC
:10272000DEBF0FBECDBF988F8F8B698F5B8F4A8FB7
:10273000898D55DE8F89988D909581959F4F988FC3
:102740008F8B84E48F878F89988D892F990F990BB0
:10275000888B8F89898B72C080E090E0A8E4B2E416
:102760008B879C87AD87BE876B857C858D859E8595
:1027700020E030E44CE155E40E942B22DC01CB0147
:102780008F839887A987BA876F81788589859A858D
:1027900020E030E040E85FE30E94D82088232CF45A
:1027A00081E090E09E838D833FC06F81788589852D
:1027B0009A8520E03FEF4FE757E40E942722181642
:1027C0004CF56B857C858D859E8520E030E040E270
:1027D00051E40E942B22DC01CB01BC01CD010E94FF
:1027E0004921DC01CB019E838D830FC08AEF90E0ED
:1027F0009C838B838B819C810197F1F79C838B83D6
:102800008D819E8101979E838D838D819E8100970E
:1028100069F714C06F81788589859A850E9449215E
:10282000DC01CB019E838D838D819E819A83898378
:1028300089819A810197F1F79A838983CE010F9656
:1028400063EC0E940F08882309F086CF8A8D9B8D48
:1028500024DF6B960FB6F894DEBF0FBECDBFCF91CD
:10286000DF910895DF93CF93CDB7DEB76C970FB6A6
:10287000F894DEBF0FBECDBF988F8F8B698F4A8FC4
:102880003C8F2B8F898DABDD87E48F87EF89F88DA7
:1028900080819181892F990F990B888BEF89F88D11
:1028A00080819181898BEF89F88D82819381892F35
:1028B000990F990B8A8BEF89F88D828193818B8B8D
:1028C0001C8A8A8D81958D8B72C080E090E0A8E48F
:1028D000B2E48B879C87AD87BE876B857C858D85B1
:1028E0009E8520E030E44CE155E40E942B22DC017F
:1028F000CB018F839887A987BA876F81788589856F
:102900009A8520E030E040E85FE30E94D8208823E9
:102910002CF481E090E09E838D833FC06F817885A9
:1029200089859A8520E03FEF4FE757E40E942722F0
:1029300018164CF56B857C858D859E8520E030E0F2
:1029400040E251E40E942B22DC01CB01BC01CD010D
:102950000E944921DC01CB019E838D830FC08AEF49
:1029600090E09C838B838B819C810197F1F79C8302
:102970008B838D819E8101979E838D838D819E8126
:10298000009769F714C06F81788589859A850E94C0
:102990004921DC01CB019E838D838D819E819A83A9
:1029A000898389819A810197F1F79A838983CE017E
:1029B0000F9663EC0E940F08882309F086CF8B8D59
:1029C0009C8D6BDE6C960FB6F894DEBF0FBECDBF4C
:1029D000CF91DF910895DF93CF93CDB7DEB769979D
:1029E0000FB6F894DEBF0FBECDBF998F888F89E4F4
:1029F000888BE88DF98D80819181892F990F990BB2
:102A0000898BE88DF98D808191818A8BE88DF98D94
:102A100082819381892F990F990B8B8BE88DF98D8A
:102A2000828193818C8BE88DF98D8481958181954C
:102A30008F878F85992787FD9095892F990F990BFF
:102A40008D8B8F858E8BE88DF98D80819181909310
:102A50000D0180930C01E88DF98D82819381909313
:102A60000F0180930E01E88DF98D848195819095F9
:102A700081959F4F909311018093100172C080E067
:102A800090E0A8E4B2E48B879C87AD87BE876B8516
:102A90007C858D859E8520E030E44CE155E40E94E4
:102AA0002B22DC01CB018F839887A987BA876F819E
:102AB000788589859A8520E030E040E85FE30E94D0
:102AC000D82088232CF481E090E09E838D833FC042
:102AD0006F81788589859A8520E03FEF4FE757E43D
:102AE0000E94272218164CF56B857C858D859E8566
:102AF00020E030E040E251E40E942B22DC01CB01D7
:102B0000BC01CD010E944921DC01CB019E838D8354
:102B10000FC08AEF90E09C838B838B819C8101970F
:102B2000F1F79C838B838D819E8101979E838D839A
:102B30008D819E81009769F714C06F8178858985A2
:102B40009A850E944921DC01CB019E838D838D8172
:102B50009E819A83898389819A810197F1F79A836B
:102B60008983CE01409663EC0E940F08882309F008
:102B700086CF69960FB6F894DEBF0FBECDBFCF915A
:102B8000DF910895DF93CF93CDB7DEB76B970FB684
:102B9000F894DEBF0FBECDBF988F8F8B698F5B8F90
:102BA0004A8F898D1CDC8F89988D909581959F4FD8
:102BB000988F8F8B84E58F878F89988D892F990FB8
:102BC000990B888B8F89898B72C080E090E0A8E494
:102BD000B2E48B879C87AD87BE876B857C858D85AE
:102BE0009E8520E030E44CE155E40E942B22DC017C
:102BF000CB018F839887A987BA876F81788589856C
:102C00009A8520E030E040E85FE30E94D8208823E6
:102C10002CF481E090E09E838D833FC06F817885A6
:102C200089859A8520E03FEF4FE757E40E942722ED
:102C300018164CF56B857C858D859E8520E030E0EF
:102C400040E251E40E942B22DC01CB01BC01CD010A
:102C50000E944921DC01CB019E838D830FC08AEF46
:102C600090E09C838B838B819C810197F1F79C83FF
:102C70008B838D819E8101979E838D838D819E8123
:102C8000009769F714C06F81788589859A850E94BD
:102C90004921DC01CB019E838D838D819E819A83A6
:102CA000898389819A810197F1F79A838983CE017B
:102CB0000F9663EC0E940F08882309F086CF8A8D57
:102CC0009B8DEBDC6B960FB6F894DEBF0FBECDBFCD
:102CD000CF91DF910895DF93CF93CDB7DEB76B9798
:102CE0000FB6F894DEBF0FBECDBF988F8F8B698F64
:102CF0005B8F4A8F898D73DB8F89988D9095819535
:102D00009F4F988F8F8B81E48F878F89988D892F24
:102D1000990F990B888B8F89898B72C080E090E026
:102D2000A8E4B2E48B879C87AD87BE876B857C85E2
:102D30008D859E8520E030E44CE155E40E942B22F5
:102D4000DC01CB018F839887A987BA876F8178854B
:102D500089859A8520E030E040E85FE30E94D82032
:102D600088232CF481E090E09E838D833FC06F81A7
:102D7000788589859A8520E03FEF4FE757E40E94E8
:102D8000272218164CF56B857C858D859E8520E065
:102D900030E040E251E40E942B22DC01CB01BC0177
:102DA000CD010E944921DC01CB019E838D830FC0A0
:102DB0008AEF90E09C838B838B819C810197F1F754
:102DC0009C838B838D819E8101979E838D838D81D2
:102DD0009E81009769F714C06F81788589859A85EF
:102DE0000E944921DC01CB019E838D838D819E81D0
:102DF0009A83898389819A810197F1F79A838983DC
:102E0000CE010F9663EC0E940F08882309F086CF4D
:102E10008A8D9B8D42DC6B960FB6F894DEBF0FBE99
:102E2000CDBFCF91DF910895DF93CF9300D000D035
:102E3000CDB7DEB769837A838B839C830E948D0331
:102E400080E00F900F900F900F90CF91DF91089539
:102E5000DF93CF9300D000D0CDB7DEB769837A83FC
:102E60008B839C830E94820380E00F900F900F90D1
:102E70000F90CF91DF9108950F931F93DF93CF931E
:102E8000CDB7DEB7C958D0400FB6F894DEBF0FBE3D
:102E9000CDBFFE01EE57FF4F1082FE01EF57FF4FEF
:102EA0001082FE01E158FF4F82E08083FE01ED5762
:102EB000FF4F84EB90E091838083FE01ED57FF4F3D
:102EC00082EF93E093838283FE01ED57FF4F8AE503
:102ED00090E095838483CE018D579F4F7CDDFE016A
:102EE000E158FF4F8081992787FD909582309105A9
:102EF000B1F7FE01EE57FF4FDE01AF57BF4F8C9188
:102F00008083BAC5FE01EE57FF4F8081482F50E005
:102F1000CA01880F991F9C01220F331F220F331FF4
:102F2000820F931F840F951F8D539E4FBC01FE018E
:102F3000EE57FF4F8081482F50E0CA01880F991F3C
:102F40009C01220F331F220F331F820F931F840F08
:102F5000951FFC01E653FE4FA081FE01EE57FF4F87
:102F60008081482F50E0CA01880F991F9C01220FD1
:102F7000331F220F331F820F931F840F951FFC01F5
:102F8000E553FE4F8081B82FFE01EE57FF4F808141
:102F9000482F50E0CA01880F991F9C01220F331F50
:102FA000220F331F820F931F840F951FFC01E453E0
:102FB000FE4F20813181CB016A2F4B2F53DCFE0164
:102FC000E058FF4F8083FE01E058FF4F8081813041
:102FD00009F485CFFE01EE57FF4F8081813039F033
:102FE000FE01EE57FF4F8081833009F0B5C0FE012E
:102FF000E558FF4F80E090E0AAE7B4E48083918336
:10300000A283B3838E0109581F4FFE01E558FF4F7D
:10301000608171818281938120E030E44CE155E44C
:103020000E942B22DC01CB01F80180839183A283D3
:10303000B383FE01E958FF4F6081718182819381E2
:1030400020E030E040E85FE30E94D820882344F489
:10305000FE01EB58FF4F81E090E09183808364C0D4
:10306000FE01E958FF4F608171818281938120E0E8
:103070003FEF4FE757E40E94272218160CF043C099
:10308000FE01E558FF4F608171818281938120E0CC
:1030900030E040E251E40E942B22DC01CB018E01A2
:1030A0000B581F4FBC01CD010E944921DC01CB010F
:1030B000F801918380831FC0FE01ED58FF4F8AEF16
:1030C00090E091838083FE01ED58FF4F80819181D4
:1030D0000197F1F7FE01ED58FF4F91838083DE01E8
:1030E000AB58BF4FFE01EB58FF4F80819181019794
:1030F00011969C938E93FE01EB58FF4F8081918136
:103100000097D1F6B0C48E010B581F4FFE01E9584D
:10311000FF4F60817181828193810E944921DC018E
:10312000CB01F80191838083DE01AF58BF4FFE01D0
:10313000EB58FF4F8081918111969C938E93FE01F5
:10314000EF58FF4F808191810197F1F7FE01EF5811
:10315000FF4F9183808387C4FE01EE57FF4F80812C
:10316000863009F0A6C284E60E947403FE01E3598A
:10317000FF4F80E090E0A8E4B4E480839183A283D1
:10318000B3838E0107591F4FFE01E359FF4F608142
:1031900071818281938120E030E44CE155E40E940A
:1031A0002B22DC01CB01F80180839183A283B383BE
:1031B000FE01E759FF4F608171818281938120E098
:1031C00030E040E85FE3F4D7882344F4FE01E95996
:1031D000FF4F81E090E09183808363C0FE01E75957
:1031E000FF4F608171818281938120E03FEF4FE743
:1031F00057E40E94272218160CF043C0FE01E35941
:10320000FF4F608171818281938120E030E040E254
:1032100051E40E942B22DC01CB018E0109591F4F82
:10322000BC01CD010E944921DC01CB01F801918351
:1032300080831FC0FE01EB59FF4F8AEF90E091831E
:103240008083FE01EB59FF4F808191810197F1F757
:10325000FE01EB59FF4F91838083DE01A959BF4FD7
:10326000FE01E959FF4F80819181019711969C934E
:103270008E93FE01E959FF4F808191810097D1F62D
:1032800026C08E0109591F4FFE01E759FF4F60818B
:10329000718182819381FDD7DC01CB01F80191839B
:1032A0008083DE01AD59BF4FFE01E959FF4F808198
:1032B00091818D939C93FE01ED59FF4F8081918107
:1032C0000197F1F7FE01ED59FF4F9183808388E26A
:1032D00090E06EE140E050E055DCFE01E15AFF4F26
:1032E00080E090E0AAEFB3E480839183A283B3836C
:1032F0008E01055A1F4FFE01E15AFF4F6081718117
:103300008281938120E030E44CE155E40E942B223D
:10331000DC01CB01F80180839183A283B383FE019A
:10332000E55AFF4F608171818281938120E030E016
:1033300040E85FE33DD7882344F4FE01E75AFF4F9E
:1033400081E090E09183808362C0FE01E55AFF4FE7
:10335000608171818281938120E03FEF4FE757E4E4
:103360000E94272218160CF042C0FE01E15AFF4FBE
:10337000608171818281938120E030E040E251E4FC
:103380000E942B22DC01CB018E01075A1F4FBC018A
:10339000CD017FD7DC01CB01F801918380831FC071
:1033A000FE01E95AFF4F8AEF90E091838083FE018E
:1033B000E95AFF4F808191810197F1F7FE01E95AA7
:1033C000FF4F91838083DE01A75ABF4FFE01E75A6A
:1033D000FF4F80819181019711969C938E93FE01FE
:1033E000E75AFF4F808191810097D1F626C08E0168
:1033F000075A1F4FFE01E55AFF4F6081718182819C
:10340000938147D7DC01CB01F80191838083DE01F2
:10341000AB5ABF4FFE01E75AFF4F808191818D93D8
:103420009C93FE01EB5AFF4F808191810197F1F748
:10343000FE01EB5AFF4F9183808384E10E942F03AA
:10344000FE01EF5AFF4F80E090E0A8E4B4E48083EF
:103450009183A283B3838E01035B1F4FFE01EF5A5A
:10346000FF4F608171818281938120E030E44CE1E3
:1034700055E4F1D7DC01CB01F80180839183A2836D
:10348000B383FE01E35BFF4F608171818281938191
:1034900020E030E040E85FE38BD6882344F4FE016F
:1034A000E55BFF4F81E090E09183808360C0FE0187
:1034B000E35BFF4F608171818281938120E03FEF68
:1034C0004FE757E4C4D718160CF041C0FE01EF5A7D
:1034D000FF4F608171818281938120E030E040E282
:1034E00051E4B9D7DC01CB018E01055B1F4FBC0154
:1034F000CD01CFD6DC01CB01F801918380831FC0C1
:10350000FE01E75BFF4F8AEF90E091838083FE012D
:10351000E75BFF4F808191810197F1F7FE01E75B47
:10352000FF4F91838083DE01A55BBF4FFE01E55B0A
:10353000FF4F80819181019711969C938E93FE019C
:10354000E55BFF4F808191810097D1F626C08E0107
:10355000055B1F4FFE01E35BFF4F6081718182813C
:10356000938197D6DC01CB01F80191838083DE0142
:10357000A95BBF4FFE01E55BFF4F808191818D9379
:103580009C93FE01E95BFF4F808191810197F1F7E8
:10359000FE01E95BFF4F9183808388E39FEF6EE13B
:1035A00040E050E0B6D8FE01ED5BFF4F80E090E0D8
:1035B000AAEFB3E480839183A283B3838E01015C7D
:1035C0001F4FFE01ED5BFF4F60817181828193810E
:1035D00020E030E44CE155E43ED7DC01CB01F801BA
:1035E00080839183A283B383FE01FF966081718102
:1035F0008281938120E030E040E85FE3D9D58823E1
:103600002CF481E090E09EAF8DAF42C0FE01FF96AA
:10361000608171818281938120E03FEF4FE757E421
:1036200016D7181654F5FE01ED5BFF4F60817181CE
:103630008281938120E030E040E251E40CD7DC014C
:10364000CB01BC01CD0125D6DC01CB019EAF8DAFF6
:103650000FC08AEF90E09CAF8BAF8BAD9CAD019714
:10366000F1F79CAF8BAF8DAD9EAD01979EAF8DAF47
:103670008DAD9EAD009769F715C0FE01FF96608184
:1036800071818281938105D6DC01CB019EAF8DAF24
:103690008DAD9EAD9AAF89AF89AD9AAD0197F1F727
:1036A0009AAF89AF8AE590E06EE140E050E013DB2D
:1036B000DAC1FE01EE57FF4F8081883009F06DC0FE
:1036C00080E090E8ABE3B5E48DAB9EABAFABB8AFB9
:1036D0006DA97EA98FA998AD20E030E44CE155E4B6
:1036E000BAD6DC01CB0189AB9AABABABBCAB69A959
:1036F0007AA98BA99CA920E030E040E85FE358D587
:1037000088232CF481E090E098AB8FA73BC069A997
:103710007AA98BA99CA920E03FEF4FE757E497D601
:1037200018163CF56DA97EA98FA998AD20E030E070
:1037300040E251E490D6DC01CB01BC01CD01A9D51A
:10374000DC01CB0198AB8FA70FC08AEF90E09EA75A
:103750008DA78DA59EA50197F1F79EA78DA78FA593
:1037600098A9019798AB8FA78FA598A9009769F79B
:103770007AC169A97AA98BA99CA98BD5DC01CB0157
:1037800098AB8FA78FA598A99CA78BA78BA59CA565
:103790000197F1F79CA78BA766C1FE01EE57FF4F7B
:1037A00080818A3009F06DC080E090E0AAE7B4E43F
:1037B0008FA398A7A9A7BAA76FA178A589A59AA54D
:1037C00020E030E44CE155E446D6DC01CB018BA38C
:1037D0009CA3ADA3BEA36BA17CA18DA19EA120E063
:1037E00030E040E85FE3E4D488232CF481E090E00B
:1037F0009AA389A33BC06BA17CA18DA19EA120E0CF
:103800003FEF4FE757E423D618163CF56FA178A594
:1038100089A59AA520E030E040E251E41CD6DC0105
:10382000CB01BC01CD0135D5DC01CB019AA389A325
:103830000FC08AEF90E098A38F8F8F8D98A101978A
:10384000F1F798A38F8F89A19AA101979AA389A3D1
:1038500089A19AA1009769F706C16BA17CA18DA1EE
:103860009EA117D5DC01CB019AA389A389A19AA1B6
:103870009E8F8D8F8D8D9E8D0197F1F79E8F8D8FF1
:10388000F2C0FE01EE57FF4F80818B3009F06DC012
:1038900080E090E0AAEFB4E4898F9A8FAB8FBC8F61
:1038A000698D7A8D8B8D9C8D20E030E44CE155E460
:1038B000D2D5DC01CB018D8B9E8BAF8BB88F6D8900
:1038C0007E898F89988D20E030E040E85FE370D4F6
:1038D00088232CF481E090E09C8B8B8B3BC06D891E
:1038E0007E898F89988D20E03FEF4FE757E4AFD571
:1038F00018163CF5698D7A8D8B8D9C8D20E030E01B
:1039000040E251E4A8D5DC01CB01BC01CD01C1D41A
:10391000DC01CB019C8B8B8B0FC08AEF90E09A8BE4
:10392000898B89899A890197F1F79A8B898B8B8981
:103930009C8901979C8B8B8B8B899C89009769F75D
:1039400092C06D897E898F89988DA3D4DC01CB01CB
:103950009C8B8B8B8B899C89988B8F878F85988983
:103960000197F1F7988B8F877EC0FE01EE57FF4FCE
:1039700080818C3009F06DC080E090E8ABEBB4E45E
:103980008B879C87AD87BE876B857C858D859E8563
:1039900020E030E44CE155E45ED5DC01CB018F83BF
:1039A0009887A987BA876F81788589859A8520E06D
:1039B00030E040E85FE3FCD388232CF481E090E022
:1039C0009E838D833BC06F81788589859A8520E0B1
:1039D0003FEF4FE757E43BD518163CF56B857C85E8
:1039E0008D859E8520E030E040E251E434D5DC0155
:1039F000CB01BC01CD014DD4DC01CB019E838D8375
:103A00000FC08AEF90E09C838B838B819C81019710
:103A1000F1F79C838B838D819E8101979E838D839B
:103A20008D819E81009769F71EC06F817885898599
:103A30009A852FD4DC01CB019E838D838D819E815D
:103A40009A83898389819A810197F1F79A8389837F
:103A50000AC0FE01EE57FF4F80818F3021F4E4E36E
:103A6000F0E01082FFCFDE01AE57BF4FFE01EE57F0
:103A7000FF4F80818F5F8C93FE01EE57FF4F808157
:103A8000803108F43FCA2BCADF93CF9300D0CDB763
:103A9000DEB79A83898389819A819093AA02809361
:103AA000A9020F900F90CF91DF9108950F931F936C
:103AB000DF93CF9300D0CDB7DEB79A838983E0E858
:103AC000F0E01082E1E8F0E089E0808308E810E0AF
:103AD00089819A81CC01A0E0B0E0BC01CD0105D480
:103AE0009B01AC0160E876E988E19BE465D3DC01E9
:103AF000CB01BC01CD0120E030E040E05FE3F4D237
:103B0000DC01CB01BC01CD01C4D3DC01CB01F80148
:103B100091838083EFE6F0E082E08083AFE5B0E060
:103B2000EFE5F0E0808180688C930F900F90CF914B
:103B3000DF911F910F9108951F920F920FB60F9270
:103B400000905B000F9211242F933F934F935F934C
:103B50006F937F938F939F93AF93BF93EF93FF9355
:103B6000DF93CF93CDB7DEB78091A9029091AA02DF
:103B7000009729F0E091A902F091AA02099580919D
:103B8000AB029091AC02A091AD02B091AE0280392F
:103B90002FE5920721E0A20720E0B20710F00E9473
:103BA00098038091AB029091AC02A091AD02B091CC
:103BB000AE020196A11DB11D8093AB029093AC02A1
:103BC000A093AD02B093AE02CF91DF91FF91EF9140
:103BD000BF91AF919F918F917F916F915F914F9125
:103BE0003F912F910F9000925B000F900FBE0F90AE
:103BF0001F901895DF93CF930F92CDB7DEB789E270
:103C00000E94FE09813019F481E0898301C0198284
:103C100089810F90CF91DF910895DF93CF93CDB736
:103C2000DEB71092AB021092AC021092AD0210926D
:103C3000AE02CF91DF910895DF93CF93CDB7DEB77A
:103C400081E08093AF02CF91DF910895DF93CF930E
:103C5000CDB7DEB78091AB029091AC02A091AD02DE
:103C6000B091AE02BC01CD01CF91DF910895DF93F9
:103C7000CF93CDB7DEB76C970FB6F894DEBF0FBE0B
:103C8000CDBF8EE79AE000DF80E090E0A8ECB2E4E0
:103C9000898F9A8FAB8FBC8F698D7A8D8B8D9C8D20
:103CA00020E030E44CE155E4D6D3DC01CB018D8B30
:103CB0009E8BAF8BB88F6D897E898F89988D20E020
:103CC00030E040E85FE374D288232CF481E090E098
:103CD0009C8B8B8B3BC06D897E898F89988D20E072
:103CE0003FEF4FE757E4B3D318163CF5698D7A8D53
:103CF0008B8D9C8D20E030E040E251E4ACD3DC01C0
:103D0000CB01BC01CD01C5D2DC01CB019C8B8B8BDF
:103D10000FC08AEF90E09A8B898B89899A890197E5
:103D2000F1F79A8B898B8B899C8901979C8B8B8B64
:103D30008B899C89009769F713C06D897E898F896B
:103D4000988DA7D2DC01CB019C8B8B8B8B899C89B6
:103D5000988B8F878F8598890197F1F7988B8F873C
:103D600088E260E040E00E94900889E260E040E084
:103D70000E94900888E060E040E00E9490088AE09D
:103D800060E040E00E9490088CE060E040E00E942B
:103D900090088EE060E040E00E949008E3E3F0E0ED
:103DA0008FEF8083E4E3F0E0108282E390E00E94F2
:103DB000170188EE93E07ADE81E00E944B070E94B3
:103DC000210488E20E94FE098823D9F380E090E074
:103DD000A0E2B1E48B879C87AD87BE876B857C852D
:103DE0008D859E8520E030E44CE155E434D3DC0140
:103DF000CB018F839887A987BA876F81788589855A
:103E00009A8520E030E040E85FE3D2D188232CF4AB
:103E100081E090E09E838D833BC06F8178858985AA
:103E20009A8520E03FEF4FE757E411D318163CF591
:103E30006B857C858D859E8520E030E040E251E4F5
:103E40000AD3DC01CB01BC01CD0123D2DC01CB01C3
:103E50009E838D830FC08AEF90E09C838B838B8140
:103E60009C810197F1F79C838B838D819E810197C3
:103E70009E838D838D819E81009769F713C06F812A
:103E8000788589859A8505D2DC01CB019E838D8357
:103E90008D819E819A83898389819A810197F1F727
:103EA0009A838983E4E3F0E08FEF8083B6DEC4DE9B
:103EB0006C960FB6F894DEBF0FBECDBFCF91DF91E9
:103EC00008951F920F920FB60F9200905B000F9211
:103ED00011248F939F93AF93BF93EF93FF93DF933F
:103EE000CF93CDB7DEB78091B0028823D9F080910F
:103EF000B00281508093B002A6ECB0E08091B10294
:103F0000882F90E0FC01E854FD4F80818C938091D4
:103F1000B1028F5F8093B1028091B102803411F4BD
:103F20001092B102CF91DF91FF91EF91BF91AF91CC
:103F30009F918F910F9000925B000F900FBE0F909A
:103F40001F9018951F920F920FB60F9200905B0072
:103F50000F9211242F938F939F93EF93FF93DF93EF
:103F6000CF930F92CDB7DEB7E0ECF0E0808189838C
:103F70008981882F90E08C7190700097D9F480919E
:103F8000B202882F90E0E6ECF0E02081FC01E850DE
:103F9000FD4F20838091B2028F5F8093B2028091A7
:103FA000B202803411F41092B2028091B3028F5F9A
:103FB0008093B3020F90CF91DF91FF91EF919F918A
:103FC0008F912F910F9000925B000F900FBE0F907A
:103FD0001F9018951F920F920FB60F9200905B00E2
:103FE0000F9211248F939F93AF93BF93EF93FF93FF
:103FF000DF93CF93CDB7DEB78091B4028823D9F099
:104000008091B40281508093B402AEECB0E0809114
:10401000B502882F90E0FC01E85CFC4F80818C9316
:104020008091B5028F5F8093B5028091B502803494
:1040300011F41092B502CF91DF91FF91EF91BF91F2
:10404000AF919F918F910F9000925B000F900FBEE8
:104050000F901F9018951F920F920FB60F9200901D
:104060005B000F9211242F938F939F93EF93FF93F5
:10407000DF93CF930F92CDB7DEB7E8ECF0E080810D
:1040800089838981882F90E08C7190700097D9F492
:104090008091B602882F90E0EEECF0E02081FC01E8
:1040A000E858FC4F20838091B6028F5F8093B60260
:1040B0008091B602803411F41092B6028091B7025A
:1040C0008F5F8093B7020F90CF91DF91FF91EF91B7
:1040D0009F918F912F910F9000925B000F900FBED8
:1040E0000F901F9018955058BB27AA270ED075C166
:1040F00066D130F06BD120F031F49F3F11F41EF403
:104100005BC10EF4E095E7FB51C1E92F77D180F355
:10411000BA17620773078407950718F071F49EF5C4
:104120008FC10EF4E0950B2EBA2FA02D0B01B90113
:1041300090010C01CA01A0011124FF27591B99F01D
:10414000593F50F4503E68F11A16F040A22F232F29
:10415000342F4427585FF3CF469537952795A79579
:10416000F0405395C9F77EF41F16BA0B620B730B20
:10417000840BBAF09150A1F0FF0FBB1F661F771F91
:10418000881FC2F70EC0BA0F621F731F841F48F446
:10419000879577956795B795F7959E3F08F0B3CFCC
:1041A0009395880F08F09927EE0F979587950895B6
:1041B000D9D008F481E008950CD00FC107D140F0A8
:1041C000FED030F021F45F3F19F0F0C0511139C139
:1041D000F3C014D198F39923C9F35523B1F3951B78
:1041E000550BBB27AA2762177307840738F09F5F18
:1041F0005F4F220F331F441FAA1FA9F333D00E2E87
:104200003AF0E0E830D091505040E695001CCAF7F3
:1042100029D0FE2F27D0660F771F881FBB1F2617B8
:1042200037074807AB07B0E809F0BB0B802DBF018B
:10423000FF2793585F4F2AF09E3F510568F0B6C0A4
:1042400000C15F3FECF3983EDCF386957795679568
:10425000B795F7959F5FC9F7880F911D969587953C
:1042600097F90895E1E0660F771F881FBB1F62175B
:1042700073078407BA0720F0621B730B840BBA0B19
:10428000EE1F88F7E095089504D06894B111D9C065
:104290000895BCD088F09F5790F0B92F9927B75157
:1042A000A0F0D1F0660F771F881F991F1AF0BA95FA
:1042B000C9F712C0B13081F0C3D0B1E00895C0C0D9
:1042C000672F782F8827B85F39F0B93FCCF38695F0
:1042D00077956795B395D9F73EF49095809570954D
:1042E00061957F4F8F4F9F4F0895E89409C097FBCA
:1042F0003EF490958095709561957F4F8F4F9F4FBD
:104300009923A9F0F92F96E9BB279395F695879500
:1043100077956795B795F111F8CFFAF4BB0F11F4C3
:1043200060FF1BC06F5F7F4F8F4F9F4F16C088236A
:1043300011F096E911C0772321F09EE8872F762FA0
:1043400005C0662371F096E8862F70E060E02AF0E1
:104350009A95660F771F881FDAF7880F96958795CD
:1043600097F90895990F0008550FAA0BE0E8FEEFA2
:1043700016161706E807F907C0F012161306E40729
:10438000F50798F0621B730B840B950B39F40A2622
:1043900061F0232B242B252B21F408950A2609F400
:1043A000A140A6958FEF811D811D089597F99F6704
:1043B00080E870E060E008959FEF80EC08950024AD
:1043C0000A941616170618060906089500240A947A
:1043D00012161306140605060895092E0394000C00
:1043E00011F4882352F0BB0F40F4BF2B11F460FF8F
:1043F00004C06F5F7F4F8F4F9F4F089557FD9058B8
:10440000440F551F59F05F3F71F04795880F97FB98
:10441000991F61F09F3F79F0879508951216130652
:104420001406551FF2CF4695F1DF08C01616170681
:104430001806991FF1CF86957105610508940895B6
:10444000E894BB2766277727CB0197F908958ADF81
:1044500008F48FEF08950BD0C0CFB1DF28F0B6DF9E
:1044600018F0952309F0A2CFA7CF1124EACFC6DF19
:10447000A0F3959FD1F3950F50E0551F629FF00177
:10448000729FBB27F00DB11D639FAA27F00DB11DD0
:10449000AA1F649F6627B00DA11D661F829F222759
:1044A000B00DA11D621F739FB00DA11D621F839FE0
:1044B000A00D611D221F749F3327A00D611D231FB6
:1044C000849F600D211D822F762F6A2F11249F5704
:1044D00050408AF0E1F088234AF0EE0FFF1FBB1F27
:1044E000661F771F881F91505040A9F79E3F5105C6
:1044F00070F05CCFA6CF5F3FECF3983EDCF386957F
:1045000077956795B795F795E7959F5FC1F7FE2B70
:10451000880F911D9695879597F908950F931F938E
:10452000CF93DF93689F8001699F100D789F100DD6
:104530001124C8010DD0EC01009721F060E070E07B
:10454000A8010BD1CE01DF91CF911F910F9108955A
:10455000CF93DF93BC018230910510F462E070E0EC
:10456000A091BA03B091BB03ED01E0E0F0E040E0C0
:1045700050E021C0888199818617970769F48A8164
:104580009B81309719F09383828304C09093BB037F
:104590008093BA03FE0134C06817790738F44115D7
:1045A000510519F08417950708F4AC01FE018A81C2
:1045B0009B819C01E9012097E9F641155105A9F17C
:1045C000CA01861B970B049708F4BA01E0E0F0E0FB
:1045D0002AC08D919C91119784179507F9F464175F
:1045E000750781F412968D919C911397309719F06D
:1045F0009383828304C09093BB038093BA03FD012D
:1046000032964FC0CA01861B970BFD01E80FF91FB8
:104610006193719302978D939C9343C0FD018281B6
:1046200093819C01D9011097A1F68091B8039091D4
:10463000B903892B41F48091020190910301909379
:10464000B9038093B80340910401509105014115CD
:10465000510541F44DB75EB7809100019091010181
:10466000481B590B2091B8033091B9032417350723
:10467000B0F4CA01821B930B8617970780F0AB0139
:104680004E5F5F4F8417950750F0420F531F5093B2
:10469000B9034093B803F9016193719302C0E0E05C
:1046A000F0E0CF01DF91CF910895CF93DF93009792
:1046B00009F450C0EC0122971B821A82A091BA0320
:1046C000B091BB03109709F140E050E0AC17BD0773
:1046D00008F1BB83AA83FE0121913191E20FF31F00
:1046E000AE17BF0779F48D919C911197280F391F50
:1046F0002E5F3F4F3983288312968D919C9113979B
:104700009B838A834115510571F4D093BB03C093F9
:10471000BA0320C012968D919C911397AD0100971A
:1047200011F0DC01D3CFFA01D383C28321913191FF
:10473000E20FF31FCE17DF0769F488819981280FF4
:10474000391F2E5F3F4FFA01318320838A819B817D
:1047500093838283DF91CF910895DC0101C06D9333
:0C47600041505040E0F70895F894FFCF5E
:10476C002000BC030000010008010801000000004B
:10477C00000049B90034030000001EFF0000B9001E
:10478C00CE040000001E0100004C04FC03000000DD
:10479C001E01D40AFC0370030000001EFF00001869
:1047AC000112020000001E010000DC0044020000A7
:1047BC0000140100008C00840300000014010000B0
:1047CC001801D6060000003CFFE70A550008070058
:1047DC00000014FF0000180108070000003201005F
:1047EC0000180185070000001401000018017C0668
:1047FC0000000014FF000044027C060000001401BD
:10480C0000004402A8070000001401000044027CD0
:10481C000600000014FF000055007C060000001488
:10482C00010000B9009C040000001E010000B9004A
:10483C0070030000001EFF00004C04D403000000B5
:10484C001E011417E803D4030000001EFF0000181B
:10485C0001F0050000001E010000DC008C050000CA
:10486C0000140100008C004C040000001401000036
:10487C001801C8000000005AFF28175500C8000096
:10488C00000014FF00001801C800000000320100F5
:10489C0000180178000000001401000018015401F8
:1048AC0000000014FF000044025401000000140139
:1048BC000000440264000000001401000044025493
:1048CC000100000014FF00006400540100000014FB
:0448DC0001000000D7
:00000001FF
